:020000040000FA
:100000000210018F7FC202E4F537857F4D8D587550
:100010004E0112002E754E01E57F4401F54D12127E
:1000200004AF5322E4F5A753D9BF2202116920007F
:10003000FDD200C203D2C52000FD22020EFC020345
:1000400086E86480F8E933E83360110460F0ED334A
:10005000EC337009E8FCE9FDEAFEEBFF220460DE08
:10006000D3EB9FEA9EE99DE8C2E78CF0C2F795F0DA
:10007000400CE8CCF8E9CDF9EACEFAEBCFFB12035D
:100080005185D0F05804700320D5B3E804700750B0
:1000900002B2D502039092D5EC0460F7E4CCC0E044
:1000A000C398F8603B94186008400DD0E0FB020351
:1000B00068E4FBFAC9FC8028E830E406E4C9FBE404
:1000C000CAFCE830E305E4C9CACBFCE85407601079
:1000D000F8C3E913F9EA13FAEB13FBEC13FCD8F1BC
:1000E00030F52FC3E49CFCEF9BFFEE9AFEED99FDEB
:1000F000D0E0FBEF4E4D4C701222DB0302038DEC7F
:100100002CFCEF33FFEE33FEED33FDED30E7EB0279
:100110000368EF2BFFEE3AFEED39FDD0E0FB501304
:100120000BBB0003020390ED13FDEE13FEEF13FF74
:10013000EC13FC020368EC4D6011E8497017ED33D5
:10014000EC3304600DE4FCFFFEFD22E933E83304E8
:1001500070F802038612035158046009E4CC24812C
:10016000500628500902039028400302038DC0E086
:10017000EB4A7044B98006D0E0FB02037CEF4E707E
:100180001CBD8008EBFFEAFEE9FD80EBE98DF0A4E1
:10019000FEE5F002021FE9CDF9EAFEEBFFEF89F080
:1001A000A4FCE5F0CE89F0A42EFFE435F0CD89F073
:1001B000A42DFEE435F08067EF4E7005BD80D7803A
:1001C000C3EF8BF0A4ACF0EE8BF0A42CFCE435F084
:1001D000F8EF8AF0A42CE5F038FCE433CB8DF0A4E2
:1001E0002CFCE5F03BF8EE8AF0A42CFCE5F038F8A6
:1001F000E433CF89F0A42CFCE5F038CF3400CE896D
:10020000F0A42FFFE5F03EFEE433C98DF0A42EFEEE
:10021000E5F039CD8AF0A42FFFE5F03EFEE43DFD88
:1002200033D0E0FB50070BBB000F020390EC2CFC1B
:10023000EF33FFEE33FEED33FD020368020390EC73
:100240005D046005E85904700302038612035158E7
:100250000460F6EC4860F2EC7004FDFEFF22C8601A
:10026000DB2481C85009C3986002500602038D98B0
:1002700050CAF582E9294B4A7005AB8202037C75AE
:10028000F0007C1A7880C3EF9BEE9AED99400DC385
:10029000EF9BFFEE9AFEED99FDE842F0DC23ACF017
:1002A000D0E0FFD0E0FED0E0FDAB8220E7101BEBFA
:1002B00060BAEC2CFCEF33FFEE33FEED33FD0203AE
:1002C00068E803F830E705C0F075F000EF2FFFEEA7
:1002D00033FEED33FD40B830E7C280AA75F02080D0
:1002E0000E75F010800575F0087D007E007F0033EC
:1002F00092D530D5031204F5EC334010EF33FFEE06
:1003000033FEED33FDEC33FCD5F0ED22E5F0247E39
:10031000A2D513CC92E7CDCEFF22EDD2E7CD33ECC0
:100320003392D524814006E4FFFEFDFC22FCE4CF9D
:10033000CECDCC24E0501174FF80EDC3CC13CCCDD6
:1003400013CDCE13CECF13CF0470F030D5DE020420
:10035000F5E9D2E7C933E833F892D5EDD2E7CD33EA
:10036000EC33FC5002B2D522EC30E7100FBF000C8A
:100370000EBE00080DBD00040BEB6014A2D5EB13FC
:10038000FCED92E7FD2274FFFCFDFEFF22E480F805
:10039000A2D574FF13FC7D80E480EFBB0106898247
:1003A0008A83E0225002E722BBFE02E32289828A8E
:1003B00083E49322BB010689828A83F0225002F7EC
:1003C00022BBFE01F322EF8DF0A4A8F0CF8CF0A4A5
:1003D00028CE8DF0A42EFE22E88FF0A4CC8BF0A4C2
:1003E0002CFCE98EF0A42CFC8AF0EDA42CFCEA8E07
:1003F000F0A4CDA8F08BF0A42DCC3825F0FDE98F2A
:10040000F0A42CCD35F0FCEB8EF0A4FEA9F0EB8F20
:10041000F0A4CFC5F02ECD39FEE43CFCEAA42DCEED
:1004200035F0FDE43CFC2275F008758200EF2FFFEB
:10043000EE33FECD33CDCC33CCC58233C5829BEDBC
:100440009AEC99E58298400CF582EE9BFEED9AFDC0
:10045000EC99FC0FD5F0D6E4CEFBE4CDFAE4CCF970
:10046000A88222B800C1B90059BA002DEC8BF084E3
:10047000CFCECDFCE5F0CBF97818EF2FFFEE33FEB1
:10048000ED33FDEC33FCEB33FB10D703994004EB69
:1004900099FB0FD8E5E4F9FA227818EF2FFFEE3335
:1004A000FEED33FDEC33FCC933C910D7059BE99A47
:1004B0004007EC9BFCE99AF90FD8E0E4C9FAE4CCD8
:1004C000FB2275F010EF2FFFEE33FEED33FDCC3342
:1004D000CCC833C810D7079BEC9AE899400AED9B2B
:1004E000FDEC9AFCE899F80FD5F0DAE4CDFBE4CC0A
:1004F000FAE4C8F922C3E49FFFE49EFEE49DFDE414
:100500009CFC22EB9FF5F0EA9E42F0E99D42F0EC64
:100510006480C864809845F022EB9FF5F0EA9E4223
:10052000F0E99D42F0E89C45F022E86010ECA2E77B
:1005300013FCED13FDEE13FEEF13FFD8F022E8607D
:100540000FEFC333FFEE33FEED33FDEC33FCD8F198
:10055000228E598F5A7DE37FEE120003EF75F01063
:10056000A4FFAEF0C007C0067DE27FEE120003EFED
:10057000540FFDD0E0F56BD0E04DF56C7DE17FEEE2
:10058000120003EF75F010A4FFAEF0C007C0067DA7
:10059000E27FEE120003E4C4F854F0C868FCEFC434
:1005A000540F48FDD0E04CF56DD0E04DF56E7DE484
:1005B0007FEE1200038F6F7DE57FEE1200038F70D8
:1005C0007DE67FEE1200038F717DE77FEE12000360
:1005D0008F727DE87FEE1200038F73AF6FEF33955C
:1005E000E0FEFDFCAB25AA24A923A8221203D8E42F
:1005F0007B64FAF9F8121125780112052AC004C0AB
:1006000005C006C007AE6BAF6CE4FCFD78041205B4
:100610003EA804A905AA06AB07C3E55A9BFFE55906
:100620009AFEE499FDE498FCD003D002D001D000FA
:10063000C3EF9BF562EE9AF561ED99F560EC98F5E4
:100640005FAF71EF3395E0FEFDFCAB25AA24A92333
:10065000A8221203D8E47B64FAF9F8121125AB251D
:10066000AA24A923A8221203D8780612052AE47B1B
:1006700064FAF9F8121125C004C005C006C007AF1E
:1006800070EF3395E0FEFDFCAB25AA24A923A82238
:100690001203D8E47B64FAF9F8121125D003D002D2
:1006A000D001D000EF2BFFEE3AFEED39FDEC38FC27
:1006B000E42FFBEE3440FAE43DF9E43CF8AE6DAFD4
:1006C0006EE4FCFD1203D8780A12052A8F668E6547
:1006D0008D648C63AF66AE65AD64AC63AB62AA61DA
:1006E000A960A85F1203D88F5E8E5D8D5C8C5BAFB6
:1006F00072E4FCFDFE780712053E8F628E618D600C
:100700008C5FAF73EF3395E0FEFDFCAB25AA24A907
:1007100023A8221203D8E47B64FAF9F8121125EF1A
:100720002562FFEE3561FEED3560FDEC355FFC784E
:100730000412052A8F628E618D608C5FAF5EAE5DA4
:10074000AD5CAC5B780E12052AC004C005C006C0C3
:1007500007AF5EAE5DAD5CAC5B780E12052AD003D0
:10076000D002D001D0001203D8780A12052A8F6671
:100770008E658D648C63AF66AE65AD64AC63AB6251
:10078000AA61A960A85F1203D8780112052A8F6AAE
:100790008E698D688C67E55E256AFFE55D3569FECB
:1007A000E55C3568FDE55B3567FC780A12052AE4EF
:1007B0007BE87A03F9F81203D8780C12052A8F48DF
:1007C0008E478D468C45AF48AE47AD46AC458F252C
:1007D0008E248D238C227FA07E867D017C00AB48F9
:1007E000AA47A946A845D3120503400E7548A0752F
:1007F00047867546017545008015AF48AE47AD4642
:10080000AC45EC335009E4F548F547F546F545AFFE
:1008100048AE47AD46AC45E47BE87A03F9F81211DF
:10082000258F488E478D468C45AF48228E598F5A6A
:100830007D047FEE120003EF54F0FFE4C4F854F09F
:10084000C868F56FEFC4540F48F5707D2B7FEE122A
:100850000003EF540FFFE48F41F540F53FF53E7F75
:1008600005FEFDFCAB41AA40A93FA83EC31205030B
:10087000600EE47F0DFEFDFCA83EC3120503700A66
:10088000E4F55EF55D755C80805BE47F07FEFDFC52
:10089000AB41AA40A93FA83EC3120503700B755E89
:1008A000CD755DCC755C4C803CE47F0AFEFDFCABF5
:1008B00041AA40A93FA83EC3120503700E755ECD44
:1008C000755DCC755C4C755BBE8028E47F0BFEFDCE
:1008D000FCAB41AA40A93FA83EC3120503700BF52B
:1008E0005EF55DF55C755BBF8009E4F55EF55DF571
:1008F0005CF55BE47F04FEFDFCAB41AA40A93FA888
:100900003EC3120503700E7562CD7561CC7560CC67
:10091000755F3D806EE47F05FEFDFCAB41AA40A9FA
:100920003FA83EC3120503700D7433F562F561F5FF
:1009300060755F3F804DE47F07FEFDFCAB41AA4040
:10094000A93FA83EC3120503700E7562CD7561CC38
:1009500075604C755FBF802BE47F08FEFDFCAB41EA
:10096000AA40A93FA83EC3120503700E7562CD755B
:1009700061CC7560CC755FBD8009E4F562F561F509
:1009800060F55FAC6FAD70E41202E1E4FBFA79A0B0
:1009900078401201367B007A8079A77844120045AE
:1009A0008F668E658D648C63E4FBFA79C87842AFFC
:1009B0005EAE5DAD5CAC5B12023FE4FBFA79807821
:1009C0003F120045AB66AA65A964A8631201368F81
:1009D0006A8E698D688C67E4FBFA79C87842AF62E9
:1009E000AE61AD60AC5F12023FE4FBFA7980783F04
:1009F0001200458F6E8E6D8D6C8C6BAC59AD5AE4C8
:100A00001202E1E4FBFAF978C4120045AB6AAA6964
:100A1000A968A86712023FE4FBFA7980783F1200C8
:100A200045C004C005C006C00774017E00A8410887
:100A30008005C333CE33CED8F9FDAC06EC1202E10B
:100A4000C004C005C006C0077FBD7E377D067C346C
:100A5000AB6EAA6DA96CA86B120136D003D002D080
:100A600001D000120136D003D002D001D000120113
:100A700036A804A905AA06AB07E4FFFE7D807C3FEB
:100A800012023F12031A8F748E738D728C71AF74C1
:100A9000AE73AD72AC71227D027FEE120003EF5493
:100AA00030FFE4C4F854F0C868F571EFC4540F483F
:100AB000F572E4FD7FEE1200038F7375747C75751B
:100AC000D37576E775773E757D01757E5ED3E57EDD
:100AD0009490E57D648094814006757D01757E90DB
:100AE000AF25AE24AD23AC22EC4D4E4F700A7525D8
:100AF00060752409F523F522AF77E4FCFDFEAB25F4
:100B0000AA24A923A8221203D8E47BE87A03F9F8DF
:100B1000121125E4FB7A01F9F81203D88F608E5F79
:100B20008D5E8C5DAE75AF76EF2499FBEE3459FA8D
:100B3000E43402F9E433F8AE7DAF7EEE3395E0FDA8
:100B4000FC1203D8E47B05FAF9F81203D8E47B64BD
:100B5000FAF9F8121125E42FFFE43EFEED3432FDE0
:100B6000E43CFCE47B0AFAF9F8121125A804A90573
:100B7000AA06AB07AF74EF2410FFE43403FEE4FCD5
:100B8000FD1203D88F648E638D628C61E47B02FA60
:100B9000F9F8AF64AE63AD62AC61121125EF256068
:100BA000F568EE355FF567ED355EF566EC355DF5BC
:100BB00065E5722404FFE43571AB07FAE4F9F8AF98
:100BC00068AE67AD66AC651211258F6C8E6B8D6A51
:100BD0008C69AF73EF3395E0FE7C007D831203C612
:100BE000EE3395E0FDFCE42FF570E43EF56FED3457
:100BF00001F56EE43CF56DAB70AA6FA96EA86DAF00
:100C00006CAE6BAD6AAC69121125EF2406FFEE34B1
:100C1000FFFEED34FFFDEC34FFFCE47B22FAF9F833
:100C20001203D88F7C8E7B8D7A8C79E57C2432FF01
:100C3000E4357BFEE4357AFDE43579FCE47B64FA47
:100C4000F9F81211258F78AF78221211CF20802A5F
:100C500075E340C281E4FFFE0FBF00010EEFF44ECA
:100C600070F6D2813081FDE4FEFF0FBF00010EEF70
:100C7000640A4E70F5E4F5E380D31211E11211BD60
:100C8000D295D293C29420010512123E80F8E53D20
:100C900030E003020DA5C292D3E5BD9458E5BE94A1
:100CA000025003020DA5D292C2931210907D1D7FB7
:100CB000EE120003EF20E5F57D227FEE120003EF38
:100CC0007F00FEC007C0067D237FEE120003EFFD0C
:100CD000D0E0FED0E04DFF120DE0EF3395E08F2E17
:100CE000F52DF52CF52B7D257FEE120003EF7F000F
:100CF000FEC007C0067D267FEE120003EFFDD0E0A8
:100D0000FED0E04DFF120551E48F32F531F530F59C
:100D10002FD2937B02FAF9F8AF52AE51AD50AC4FDF
:100D2000120463A804A905AA06AB07AE3CAF3DE4D4
:100D3000FCFDD3120519504CC2931210907D1D7FFB
:100D4000EE120003EF20E5F57D2A7FEE120003EF9F
:100D500075F004A4FFAEF0C007C0067D2B7FEE1235
:100D600000037E00EF7806CEC313CE13D8F9FDD072
:100D7000E04EFED0E04DFF12082C8F368E358D34BC
:100D80008C33D293AE3CAF3DE4FCFDAB52AA51A9EB
:100D900050A84FD3120519500C1210DBE48F3B8E74
:100DA0003AF539F538C201053DE53D7002053CE4F0
:100DB0007F0AFEFDFCAB52AA51A950A84F1203D8DE
:100DC000A804A905AA06AB07AE3CAF3DE4FCFDD3E1
:100DD0001205194003020C86E4F53CF53D020C8631
:100DE000AD07AC067F777E67756D66756E6F756F44
:100DF00003EF25E0FBEE33FAED25E0FFEC33FEC315
:100E0000EF9BFFEE9AFE3395E08F648E63F562F5FB
:100E100061AE6DAF6EEE3395E0FDFCAB64AA63A9E5
:100E200062A8611203D8780B12052A8F688E678D2D
:100E3000668C65AF64AE63AD62AC61780112052A61
:100E4000C004C005C006C007AF64AE63AD62AC614C
:100E5000780112052AD003D002D001D0001203D8A5
:100E6000780C12052A8F6C8E6B8D6A8C69AF6FEFD0
:100E70003395E0FEEFC4F8540FC868FFEEC454F099
:100E800048FE3395E0FDFCAB6CAA6BA96AA8691219
:100E900003D8780E12052A8F6C8E6B8D6A8C69E5EB
:100EA00068256CF55CE567356BF55BE566356AF5DD
:100EB0005AE5653569F559E47F05FEFDFCAB5CAA92
:100EC0005BA95AA8591203D8EF2480FFE43EFEE440
:100ED0003DFDE43CFC780812052A8F258E248D23E5
:100EE0008C22E47B64FAF9F8AF25AE24AD23AC2262
:100EF0001211258F608E5F8D5E8C5D22C0E0C0D0A8
:100F000075D000C000C007C20430C203020FE1E583
:100F1000C054F024807003020FA524C0601E24E09A
:100F20006003020FDD854DC253C2FEA203E43342CB
:100F3000C2C2C5750801754E00020FE330C160E5FD
:100F4000086054300221300303020FE3E521D394FB
:100F500000400F740595212426F8E6F5C2152102FC
:100F60000FE3750800807C200279200310E508B4A7
:100F700001038558C2E508B402038544C2E508B4FC
:100F800001057508028008E508B40203750800E54C
:100F9000377050F508804CE537640170468038D2D0
:100FA000C4D2C5803E30022AE521D39400401FE51B
:100FB00021B4020AAFC2EF754300F542800AE52171
:100FC000B40105AFC2EF4243D2C115218015C2C1A1
:100FD000800585C253C2C1D2C4C2008006D204803B
:100FE00002D20430041053C17F43C180C2C5C2C4C1
:100FF000C2C1C200C204C2C0D007D000D0D0D0E06D
:101000003212125A787FE4F6D8FD75817F02104BB8
:10101000020C4AE493A3F8E493A34003F68001F2A0
:1010200008DFF48029E493A3F85407240CC8C333E1
:10103000C4540F4420C8834004F456800146F6DFB0
:10104000E4800B010204081020408090118AE47EA5
:10105000019360BCA3FF543F30E509541FFEE493A5
:10106000A360010ECF54C025E060A840B8E493A36C
:10107000FAE493A3F8E493A3C8C582C8CAC583CA97
:10108000F0A3C8C582C8CAC583CADFE9DEE780BE4F
:10109000E4F55CF55BF55AF5597BB67DE07FEE1221
:1010A00011F37B247D747FEE1211F37B017D727F3F
:1010B000EE1211F37B107D717FEE1211F3120A977D
:1010C000AB077D5A7FEE1211F37B067D647FEE1233
:1010D00011F37B257D747FEE0211F3E4F559F55A87
:1010E000C29520010512123E80F8C201055AE55A48
:1010F00070020559C39402E559940040E5D2027587
:101100002105754D2A754E0112002ED2027521045B
:10111000754E01754D2B121204D295E542C313FE94
:10112000E54313FF22C2D5E830E70FB2D5E4C39BF5
:10113000FBE49AFAE499F9E498F8EC30E717B2D5B1
:1011400012115B120463E4C39BFBE49AFAE499F97D
:10115000E498F8800312046330D50DE4C39FFFE4E4
:101160009EFEE49DFDE49CFC22C0E0121242754C00
:1011700000754B00754A00754900053DE53D70025C
:10118000053CD20153C87FD0E032052604138B0002
:1011900001023C0000044F00001C20C10104490072
:1011A00000000100E5C8540453C8FB75CD3475CC6C
:1011B0008C75CB3475CA8C43C80442C82275E8428A
:1011C00075960775971075BAC1E4F5C4F5C3221278
:1011D000002412124612124A12124E1211A40212C6
:1011E0005612122912123012125212121E1212111B
:1011F000021237C2027537018F4D754E018B448D37
:101200005802002E2000FDD200D203D2C52000FDDE
:1012100022758E0D75892243881043884022AF883D
:10122000758800758CFF8F8822E4F5A775A50822C4
:1012300075E34075E1052275E60175A8A02243B566
:10124000012253B5FE2275C9102243B2802275A92E
:0B125000542275C1DC224398102222BA
:00000001FF
