:020000040000FA
:100000000201163082FD12021AD293D295750FC0EA
:100010007F1C1202631202547F0C120298750901B0
:10002000E5086005E4F50880FEE5096012E4F509DD
:10003000B200300006D293C2958004D295C29330AC
:10004000001AE5B530E2FBE5B530E203750901E5DC
:10005000B530E30375080175B52080C45380FE7F79
:10006000801201A543800180B775A52875F23F7500
:10007000D5C022020292AFA975AC0575AD60E5ACA2
:1000800020E7FB75AC0675AD83E5AC20E7FB75ACEE
:100090000A75AD01E5AC20E7FB75AC04E4F5ADE510
:1000A000AC20E7FB75AC0443AD80E5AC20E7FB7505
:1000B000A9747D507C01ED1D70011CED4C70F7752D
:1000C000AC85E5AC20E7FBE5AD30E4F375AC86E547
:1000D000AC20E7FBE5AD30E6F375AC0575ADC0E5EA
:1000E000AC20E7FB75AC0443AD40E5AC20E7FB7CFE
:1000F000017D00ED1D70011CED4C70F775B5208F72
:10010000A9E5A9C330E701D350F775AC0475ADC0BC
:10011000E5AC20E7FB221202B1787FE4F6D8FD754A
:100120008120020160020003E493A3F8E493A3405A
:1001300003F68001F208DFF48029E493A3F8540762
:10014000240CC8C333C4540F4420C8834004F4565D
:10015000800146F6DFE4800B010204081020408095
:100160009002AEE47E019360BCA3FF543F30E509EA
:10017000541FFEE493A360010ECF54C025E060A895
:1001800040B8E493A3FAE493A3F8E493A3C8C58228
:10019000C8CAC583CAF0A3C8C582C8CAC583CADF96
:1001A000E9DEE780BEA2AFE433F50DC2AFAEA975BC
:1001B000A91453B6BF75E501E5A930E7FBE50C4F7F
:1001C000F5B58EA943B64085B50E75B5207F0412EE
:1001D0000271EF30E20CE50E20E207E5B5420E7544
:1001E000B520E50E20E204EF30E203750901E50ECB
:1001F00020E304EF30E503750801E50E30E10375F7
:100200000A01E50E30E003750B01E50D24FF92AF06
:10021000E50E30E4047FFFDFFE2212028412006943
:1002200012029E1200761202A21202A612023812C6
:1002300002B21202AA02028BE59154045391FB43CD
:1002400091037595F975949A7593F975929A4391FE
:100250000442912275B520E4F50CF509F508F50B7B
:10026000F50A22EF54FC420FE50F4FFD7F04020216
:100270007CEF4490F5AC000000AFAD22EF4410F5E8
:10028000AC8DAD22E4F5A753D9BF2275E68075A8E1
:10029000802253917FB29532EF540F420C2275E3C6
:1002A000402275A9042275B6402275EF0622C100CE
:0302B00000222207
:00000001FF
